{
  "contractName": "MandA",
  "abi": [
    {
      "inputs": [],
      "payable": false,
      "stateMutability": "nonpayable",
      "type": "constructor"
    },
    {
      "anonymous": false,
      "inputs": [
        {
          "indexed": false,
          "internalType": "string",
          "name": "message",
          "type": "string"
        }
      ],
      "name": "Message",
      "type": "event"
    },
    {
      "anonymous": false,
      "inputs": [
        {
          "indexed": false,
          "internalType": "uint256",
          "name": "",
          "type": "uint256"
        }
      ],
      "name": "logMinimum",
      "type": "event"
    },
    {
      "constant": true,
      "inputs": [],
      "name": "acquisitionEndDate",
      "outputs": [
        {
          "internalType": "uint256",
          "name": "",
          "type": "uint256"
        }
      ],
      "payable": false,
      "stateMutability": "view",
      "type": "function"
    },
    {
      "constant": true,
      "inputs": [],
      "name": "highestProposedValue",
      "outputs": [
        {
          "internalType": "uint256",
          "name": "",
          "type": "uint256"
        }
      ],
      "payable": false,
      "stateMutability": "view",
      "type": "function"
    },
    {
      "constant": true,
      "inputs": [],
      "name": "highestReceivedProposalAddress",
      "outputs": [
        {
          "internalType": "address",
          "name": "",
          "type": "address"
        }
      ],
      "payable": false,
      "stateMutability": "view",
      "type": "function"
    },
    {
      "constant": true,
      "inputs": [],
      "name": "minimumProposalAmount",
      "outputs": [
        {
          "internalType": "uint256",
          "name": "",
          "type": "uint256"
        }
      ],
      "payable": false,
      "stateMutability": "view",
      "type": "function"
    },
    {
      "constant": true,
      "inputs": [],
      "name": "sellerAddress",
      "outputs": [
        {
          "internalType": "address payable",
          "name": "",
          "type": "address"
        }
      ],
      "payable": false,
      "stateMutability": "view",
      "type": "function"
    },
    {
      "constant": false,
      "inputs": [],
      "name": "placeInitialBid",
      "outputs": [],
      "payable": true,
      "stateMutability": "payable",
      "type": "function"
    },
    {
      "constant": false,
      "inputs": [],
      "name": "withdraw",
      "outputs": [
        {
          "internalType": "bool",
          "name": "",
          "type": "bool"
        }
      ],
      "payable": false,
      "stateMutability": "nonpayable",
      "type": "function"
    },
    {
      "constant": false,
      "inputs": [],
      "name": "closeDeal",
      "outputs": [],
      "payable": false,
      "stateMutability": "nonpayable",
      "type": "function"
    },
    {
      "constant": false,
      "inputs": [
        {
          "internalType": "uint256",
          "name": "minValue",
          "type": "uint256"
        }
      ],
      "name": "setMinimumProposalAmount",
      "outputs": [],
      "payable": false,
      "stateMutability": "nonpayable",
      "type": "function"
    },
    {
      "constant": false,
      "inputs": [],
      "name": "startSale",
      "outputs": [],
      "payable": false,
      "stateMutability": "nonpayable",
      "type": "function"
    },
    {
      "constant": false,
      "inputs": [],
      "name": "startNegotiation",
      "outputs": [],
      "payable": false,
      "stateMutability": "nonpayable",
      "type": "function"
    },
    {
      "constant": false,
      "inputs": [],
      "name": "negotiateDeal",
      "outputs": [],
      "payable": true,
      "stateMutability": "payable",
      "type": "function"
    }
  ],
  "bytecode": "0x608060405234801561001057600080fd5b50336000806101000a81548173ffffffffffffffffffffffffffffffffffffffff021916908373ffffffffffffffffffffffffffffffffffffffff1602179055506000600760006101000a81548160ff0219169083151502179055506000600760016101000a81548160ff02191690831515021790555060006002819055506113918061009e6000396000f3fe6080604052600436106100a75760003560e01c806388f2424b1161006457806388f2424b1461019c5780638caf8569146101b357806396efc733146101ca578063a860bd4f14610221578063b109bf361461024c578063b66a0e5d14610287576100a7565b8063374c505e146100ac5780633ccfd60b146100b65780633d9b2ae6146100e55780634b3812bb1461013c5780635521c195146101675780637cddc14114610192575b600080fd5b6100b461029e565b005b3480156100c257600080fd5b506100cb610622565b604051808215151515815260200191505060405180910390f35b3480156100f157600080fd5b506100fa6108b1565b604051808273ffffffffffffffffffffffffffffffffffffffff1673ffffffffffffffffffffffffffffffffffffffff16815260200191505060405180910390f35b34801561014857600080fd5b506101516108d6565b6040518082815260200191505060405180910390f35b34801561017357600080fd5b5061017c6108dc565b6040518082815260200191505060405180910390f35b61019a6108e2565b005b3480156101a857600080fd5b506101b1610c82565b005b3480156101bf57600080fd5b506101c8610e37565b005b3480156101d657600080fd5b506101df610f8d565b604051808273ffffffffffffffffffffffffffffffffffffffff1673ffffffffffffffffffffffffffffffffffffffff16815260200191505060405180910390f35b34801561022d57600080fd5b50610236610fb3565b6040518082815260200191505060405180910390f35b34801561025857600080fd5b506102856004803603602081101561026f57600080fd5b8101908080359060200190929190505050610fb9565b005b34801561029357600080fd5b5061029c6110c1565b005b60011515600760009054906101000a900460ff16151514610327576040517f08c379a000000000000000000000000000000000000000000000000000000000815260040180806020018281038252601c8152602001807f53616c65206973206e6f7420616374697665207269676874206e6f770000000081525060200191505060405180910390fd5b60001515600760019054906101000a900460ff16151514610393576040517f08c379a00000000000000000000000000000000000000000000000000000000081526004018080602001828103825260358152602001806113026035913960400191505060405180910390fd5b6000809054906101000a900473ffffffffffffffffffffffffffffffffffffffff1673ffffffffffffffffffffffffffffffffffffffff163373ffffffffffffffffffffffffffffffffffffffff161415610456576040517f08c379a000000000000000000000000000000000000000000000000000000000815260040180806020018281038252601b8152602001807f53656c6c65722063616e6e6f7420706c6163652076616c75657321000000000081525060200191505060405180910390fd5b600354670de0b6b3a7640000600460003373ffffffffffffffffffffffffffffffffffffffff1673ffffffffffffffffffffffffffffffffffffffff168152602001908152602001600020543401816104ab57fe5b0411610502576040517f08c379a000000000000000000000000000000000000000000000000000000000815260040180806020018281038252603e815260200180611265603e913960400191505060405180910390fd5b34600460003373ffffffffffffffffffffffffffffffffffffffff1673ffffffffffffffffffffffffffffffffffffffff16815260200190815260200160002060008282540192505081905550600254600460003373ffffffffffffffffffffffffffffffffffffffff1673ffffffffffffffffffffffffffffffffffffffff16815260200190815260200160002054111561062057600460003373ffffffffffffffffffffffffffffffffffffffff1673ffffffffffffffffffffffffffffffffffffffff1681526020019081526020016000205460028190555033600160006101000a81548173ffffffffffffffffffffffffffffffffffffffff021916908373ffffffffffffffffffffffffffffffffffffffff1602179055505b565b6000600160009054906101000a900473ffffffffffffffffffffffffffffffffffffffff1673ffffffffffffffffffffffffffffffffffffffff163373ffffffffffffffffffffffffffffffffffffffff1614156106cb576040517f08c379a00000000000000000000000000000000000000000000000000000000081526004018080602001828103825260268152602001806113376026913960400191505060405180910390fd5b6000809054906101000a900473ffffffffffffffffffffffffffffffffffffffff1673ffffffffffffffffffffffffffffffffffffffff163373ffffffffffffffffffffffffffffffffffffffff16141561078e576040517f08c379a00000000000000000000000000000000000000000000000000000000081526004018080602001828103825260178152602001807f53656c6c65722063616e6e6f742077697468647261772100000000000000000081525060200191505060405180910390fd5b6000600460003373ffffffffffffffffffffffffffffffffffffffff1673ffffffffffffffffffffffffffffffffffffffff16815260200190815260200160002054905060008111156108a8576000600460003373ffffffffffffffffffffffffffffffffffffffff1673ffffffffffffffffffffffffffffffffffffffff168152602001908152602001600020819055503373ffffffffffffffffffffffffffffffffffffffff166108fc829081150290604051600060405180830381858888f193505050506108a75780600460003373ffffffffffffffffffffffffffffffffffffffff1673ffffffffffffffffffffffffffffffffffffffff1681526020019081526020016000208190555060009150506108ae565b5b60019150505b90565b6000809054906101000a900473ffffffffffffffffffffffffffffffffffffffff1681565b60055481565b60025481565b6005544210610959576040517f08c379a00000000000000000000000000000000000000000000000000000000081526004018080602001828103825260208152602001807f546865206e65676f74696174696f6e2074696d6520686173206578706972656481525060200191505060405180910390fd5b60011515600760009054906101000a900460ff161515146109e2576040517f08c379a000000000000000000000000000000000000000000000000000000000815260040180806020018281038252601c8152602001807f53616c65206973206e6f7420616374697665207269676874206e6f770000000081525060200191505060405180910390fd5b60011515600760019054906101000a900460ff16151514610a4e576040517f08c379a00000000000000000000000000000000000000000000000000000000081526004018080602001828103825260228152602001806112e06022913960400191505060405180910390fd5b6000809054906101000a900473ffffffffffffffffffffffffffffffffffffffff1673ffffffffffffffffffffffffffffffffffffffff163373ffffffffffffffffffffffffffffffffffffffff161415610b11576040517f08c379a000000000000000000000000000000000000000000000000000000000815260040180806020018281038252601b8152602001807f53656c6c65722063616e6e6f7420706c6163652076616c75657321000000000081525060200191505060405180910390fd5b600254600460003373ffffffffffffffffffffffffffffffffffffffff1673ffffffffffffffffffffffffffffffffffffffff16815260200190815260200160002054340111610bac576040517f08c379a00000000000000000000000000000000000000000000000000000000081526004018080602001828103825260338152602001806112326033913960400191505060405180910390fd5b34600460003373ffffffffffffffffffffffffffffffffffffffff1673ffffffffffffffffffffffffffffffffffffffff16815260200190815260200160002060008282540192505081905550600460003373ffffffffffffffffffffffffffffffffffffffff1673ffffffffffffffffffffffffffffffffffffffff1681526020019081526020016000205460028190555033600160006101000a81548173ffffffffffffffffffffffffffffffffffffffff021916908373ffffffffffffffffffffffffffffffffffffffff160217905550565b6000809054906101000a900473ffffffffffffffffffffffffffffffffffffffff1673ffffffffffffffffffffffffffffffffffffffff163373ffffffffffffffffffffffffffffffffffffffff1614610d27576040517f08c379a000000000000000000000000000000000000000000000000000000000815260040180806020018281038252602581526020018061120d6025913960400191505060405180910390fd5b60011515600760009054906101000a900460ff16151514610db0576040517f08c379a000000000000000000000000000000000000000000000000000000000815260040180806020018281038252600e8152602001807f53616c652068617320656e64656400000000000000000000000000000000000081525060200191505060405180910390fd5b6000600760006101000a81548160ff0219169083151502179055506000809054906101000a900473ffffffffffffffffffffffffffffffffffffffff1673ffffffffffffffffffffffffffffffffffffffff166108fc6002549081150290604051600060405180830381858888f19350505050158015610e34573d6000803e3d6000fd5b50565b6000809054906101000a900473ffffffffffffffffffffffffffffffffffffffff1673ffffffffffffffffffffffffffffffffffffffff163373ffffffffffffffffffffffffffffffffffffffff1614610edc576040517f08c379a000000000000000000000000000000000000000000000000000000000815260040180806020018281038252602581526020018061120d6025913960400191505060405180910390fd5b60001515600760019054906101000a900460ff16151514610f65576040517f08c379a00000000000000000000000000000000000000000000000000000000081526004018080602001828103825260198152602001807f53616c652068617320616c72656164792073746172746564210000000000000081525060200191505060405180910390fd5b61025842016005819055506001600760016101000a81548160ff021916908315150217905550565b600160009054906101000a900473ffffffffffffffffffffffffffffffffffffffff1681565b60035481565b6000809054906101000a900473ffffffffffffffffffffffffffffffffffffffff1673ffffffffffffffffffffffffffffffffffffffff163373ffffffffffffffffffffffffffffffffffffffff161461105e576040517f08c379a000000000000000000000000000000000000000000000000000000000815260040180806020018281038252602581526020018061120d6025913960400191505060405180910390fd5b600081116110b7576040517f08c379a000000000000000000000000000000000000000000000000000000000815260040180806020018281038252603d8152602001806112a3603d913960400191505060405180910390fd5b8060038190555050565b6000809054906101000a900473ffffffffffffffffffffffffffffffffffffffff1673ffffffffffffffffffffffffffffffffffffffff163373ffffffffffffffffffffffffffffffffffffffff1614611166576040517f08c379a000000000000000000000000000000000000000000000000000000000815260040180806020018281038252602581526020018061120d6025913960400191505060405180910390fd5b60001515600760009054906101000a900460ff161515146111ef576040517f08c379a00000000000000000000000000000000000000000000000000000000081526004018080602001828103825260198152602001807f53616c652068617320616c72656164792073746172746564210000000000000081525060200191505060405180910390fd5b6001600760006101000a81548160ff02191690831515021790555056fe53616c652063616e206f6e6c7920626520656e6465642062792042656e6566696369617279416d6f756e742073686f756c642062652067726561746572207468616e206869676865732070726f706f7365642076616c7565416d6f756e742063616e6e6f74206265206c657373207468616e206f7220657175616c20746f206d696e696d756d2070726f706f73656420616d6f756e744d696e696d756d2070726f706f73656420616d6f756e742063616e6e6f74206265206c657373207468616e206f7220657175616c20746f207a65726f2e4e65676f746174696f6e206973206e6f7420616374697665207269676874206e6f774e65676f746174696f6e206973206163746976652e2043616e6e6f7420696e6372656173652070726f706f7365642076616c75652143616e6e6f74207769746864726177206173206869676865737420706169642056616c756521a265627a7a723158202647765053819da6b0152390a76c88dd2baf002cd9affe0913a959dc59069b0764736f6c63430005100032",
  "source": "pragma solidity ^0.5.16;\n\ncontract MandA {\n\n   \n    address payable public sellerAddress;\n\n    address public highestReceivedProposalAddress;\n    uint public highestProposedValue;\n    uint public minimumProposalAmount;\n    mapping(address => uint) receivedValuesMap;\n    uint public acquisitionEndDate;\n\n\n    string str;\n\n    bool isSaleActive;\n    bool isNegotiationActive;\n\n    event logMinimum(uint);\n    event Message(string message);\n\n\n    constructor(\n \n    ) public {\n        sellerAddress = msg.sender;\n        isSaleActive = false;\n        isNegotiationActive = false;\n        highestProposedValue = 0;\n    }   \n\n\n    function placeInitialBid() public payable {\n        // require aunction end\n        require(\n            isSaleActive == true,\n            \"Sale is not active right now\"\n        );\n         require(\n            isNegotiationActive == false,\n            \"Negotation is active. Cannot increase proposed value!\"\n        );\n         require(\n            msg.sender != sellerAddress,\n            \"Seller cannot place values!\"\n        );\n        require(\n            (msg.value + receivedValuesMap[msg.sender])/ 10**18 > minimumProposalAmount,\n            \"Amount cannot be less than or equal to minimum proposed amount\"\n        );\n\n        \n        \n        //Added Value to map\n        receivedValuesMap[msg.sender] += msg.value;\n        //Change highest if necessary\n        if(receivedValuesMap[msg.sender] > highestProposedValue){\n            highestProposedValue = receivedValuesMap[msg.sender];\n            highestReceivedProposalAddress = msg.sender;\n        }\n    }  \n\n    function withdraw() public returns (bool) {\n        require(\n            msg.sender != highestReceivedProposalAddress,\n            \"Cannot withdraw as highest paid Value!\"\n        );\n         require(\n            msg.sender != sellerAddress,\n            \"Seller cannot withdraw!\"\n        );\n\n\n        uint valueToSendBackToBuyer = receivedValuesMap[msg.sender];\n        if (valueToSendBackToBuyer > 0) {\n\n            receivedValuesMap[msg.sender] = 0;\n            if (!msg.sender.send(valueToSendBackToBuyer)) {\n                receivedValuesMap[msg.sender] = valueToSendBackToBuyer;\n                return false;\n            }\n        }\n        return true;\n    }\n\n    function closeDeal() public {\n        require(\n            msg.sender == sellerAddress,\n            \"Sale can only be ended by Beneficiary\"\n            );\n        require(\n            isSaleActive == true,\n            \"Sale has ended\"\n            );\n            \n        isSaleActive = false;\n        sellerAddress.transfer(highestProposedValue);\n    }\n\n    function setMinimumProposalAmount(uint minValue) public {\n   \n        require(\n            msg.sender == sellerAddress,\n            \"Sale can only be ended by Beneficiary\"\n            );\n        require(\n            minValue > 0,\n            \"Minimum proposed amount cannot be less than or equal to zero.\"\n        );\n\n        minimumProposalAmount = minValue;\n\n    }\n    function startSale() public {\n         require(\n            msg.sender == sellerAddress,\n            \"Sale can only be ended by Beneficiary\"\n            );\n        require(\n            isSaleActive == false,\n            \"Sale has already started!\"\n            );\n        isSaleActive = true;\n    }\n\n\n    function startNegotiation() public {\n        require(\n            msg.sender == sellerAddress,\n            \"Sale can only be ended by Beneficiary\"\n            );\n        require(\n            isNegotiationActive == false,\n            \"Sale has already started!\"\n            );\n        // setting the negotiation time (this can be modififed to any time range)    \n        acquisitionEndDate = now + 600;\n        isNegotiationActive = true;\n    }\n\n    function negotiateDeal() public payable {\n        require(now < acquisitionEndDate,\"The negotiation time has expired\");\n        // require aunction end\n        require(\n            isSaleActive == true,\n            \"Sale is not active right now\"\n        );\n        require(\n            isNegotiationActive == true,\n            \"Negotation is not active right now\"\n        );\n         require(\n            msg.sender != sellerAddress,\n            \"Seller cannot place values!\"\n        );\n        require(\n            msg.value + receivedValuesMap[msg.sender] > highestProposedValue,\n            \"Amount should be greater than highes proposed value\"\n        );\n        \n        \n        //Added Value to map\n        receivedValuesMap[msg.sender] += msg.value;\n         highestProposedValue = receivedValuesMap[msg.sender];\n            highestReceivedProposalAddress = msg.sender;\n    }  \n}\n",
  "sourcePath": "/home/yogesh/Documents/Blockchain Proposal/src/contracts/MandA.sol",
  "compiler": {
    "name": "solc",
    "version": "0.5.16+commit.9c3226ce.Emscripten.clang"
  },
  "schemaVersion": "3.0.23",
  "updatedAt": "2020-02-28T23:37:25.200Z",
  "networkType": "ethereum",
  "devdoc": {
    "methods": {}
  },
  "userdoc": {
    "methods": {}
  }
}